:020000040800F2
:1000000000000120ED0400086904000871040008E4
:100010007904000881040008890400080000000039
:100020000000000000000000000000009104000833
:100030009F04000800000000AD040008BB04000895
:100040003D0500083D0500083D0500083D05000888
:100050003D0500083D0500083D0500083D05000878
:100060003D0500083D0500083D0500083D05000868
:100070003D0500083D0500083D0500083D05000858
:100080003D0500083D0500083D0500080000000092
:100090000000000000000000000000003D05000816
:1000A0003D0500083D0500083D0500083D05000828
:1000B0003D0500083D0500083D0500083D05000818
:1000C0003D0500083D0500083D0500083D05000808
:1000D0003D0500083D0500083D0500080000000042
:1000E0003D0500083D0500083D0500080000000032
:1000F0000000000000000000000000003D050008B6
:10010000000000003D0500083D0500083D05000811
:1001100000000000000000000000000000000000DF
:100120003D0500083D0500083D0500083D050008A7
:100130003D05000800000000000000000000000075
:100140000000000000000000000000003D05000865
:100150003D0500083D0500083D0500083D05000877
:100160003D0500083D0500080000000000000000FB
:10017000000000000000000000000000000000007F
:10018000000000003D050008000000000000000025
:040190003D05000821
:1001940010B5054C237833B9044B13B10448AFF3BD
:1001A40000800123237010BD0C000020000000001B
:1001B400EC0B000808B5034B1BB103490348AFF32C
:1001C400008008BD0000000010000020EC0B0008B7
:1001D400B0B59CB000AF8B4B07F148041D460FCD62
:1001E4000FC40FCD0FC495E8030084E8030000F0AA
:1001F400A5F90023BB60844B1B6B834A43F00103C6
:100204001363814B1B6B03F00103BB60BB680023CA
:100214007B607D4B1B6B7C4A43F0020313637A4B78
:100224001B6B03F002037B607B687F237B630123EA
:10023400BB630023FB6300233B6407F134031946CB
:10024400724800F0F7FA0F233B6201237B6200231C
:10025400BB620023FB6207F1200319466C4800F0DF
:10026400E9FA7023FB6000233B6101237B6107F102
:100274000C031946664800F0DDFA01220F21644898
:1002840000F074FC00220121614800F06FFC102191
:100294005F4800F053FC0346002B05D1FA6C5B4B1E
:1002A4005A61C82000F0BCF92021594800F046FCEE
:1002B4000346002B05D13A6D544B5A61C82000F017
:1002C400AFF94021524800F039FC0346002B05D118
:1002D4007A6D4E4B5A61C82000F0A2F90122012127
:1002E4004B4800F043FC00220221494800F03EFC48
:1002F4001021474800F022FC0346002B05D1BA6DBB
:10030400424B5A61C82000F08BF92021404800F08C
:1003140015FC0346002B05D1FA6D3C4B5A61C820ED
:1003240000F07EF940213A4800F008FC0346002B17
:1003340005D13A6E354B5A61C82000F071F901229B
:100344000221334800F012FC00220421304800F05E
:100354000DFC10212E4800F0F1FB0346002B05D1C3
:100364007A6E2A4B5A61C82000F05AF92021284895
:1003740000F0E4FB0346002B05D1BA6E234B5A610F
:10038400C82000F04DF94021214800F0D7FB034676
:10039400002B05D1FA6E1D4B5A61C82000F040F9BC
:1003A400012204211A4800F0E1FB00220821184828
:1003B40000F0DCFB1021164800F0C0FB0346002BC4
:1003C40002D1C82000F02CF92021114800F0B6FB1E
:1003D4000346002B05D1BA6C0C4B5A61C82000F0BF
:1003E4001FF940210A4800F0A9FB0346002B02D163
:1003F400C82000F015F901220821054800F0B6FBD9
:1004040040E700BF040C000800380240000002402E
:100414000004024080B483B000AF00237B60104B23
:100424005B6C0F4A43F4804353640D4B5B6C03F4E1
:1004340080437B607B6800233B60094B1B6C084A4C
:1004440043F080531364064B1B6C03F080533B60F2
:100454003B6800BF0C37BD465DF8047B704700BFA6
:100464000038024080B400AF00BFFDE780B400AFA5
:1004740000BFFDE780B400AF00BFFDE780B400AF6C
:1004840000BFFDE780B400AF00BFFDE780B400AF5C
:1004940000BFBD465DF8047B704780B400AF00BF69
:1004A400BD465DF8047B704780B400AF00BFBD4615
:1004B4005DF8047B704780B500AF00F091F800BF91
:1004C40080BD000080B400AF064BD3F88830054AE5
:1004D40043F47003C2F8883000BFBD465DF8047B66
:1004E400704700BF00ED00E0DFF834D0FFF7EAFF0B
:1004F4000C480D490D4A002302E0D458C45004337B
:10050400C4188C42F9D30A4A0A4C002301E0136050
:100514000432A242FBD300F043FBFFF759FE7047BD
:1005240000000120000000200C000020340C000812
:100534000C0000202C000020FEE7000080B500AF76
:100544000E4B1B680D4A43F4007313600B4B1B687E
:100554000A4A43F480631360084B1B68074A43F458
:1005640080731360032000F031F90F2000F008F8C5
:10057400FFF750FF0023184680BD00BF003C024037
:1005840080B582B000AF7860124B1A68124B1B78AA
:1005940019464FF47A73B3FBF1F3B2FBF3F3184645
:1005A40000F03BF90346002B01D001230EE07B68E9
:1005B4000F2B0AD8002279684FF0FF3000F011F9B0
:1005C400064A7B681360002300E0012318460837BD
:1005D400BD4680BD0000002008000020040000206B
:1005E40080B400AF064B1B781A46064B1B681344B5
:1005F400044A136000BFBD465DF8047B704700BF2A
:10060400080000202800002080B400AF034B1B68C2
:100614001846BD465DF8047B704700BF28000020E3
:1006240080B584B000AF7860FFF7EEFFB8607B68F8
:10063400FB60FB68B3F1FF3F05D00A4B1B781A46F9
:10064400FB681344FB6000BFFFF7DEFF0246BB6894
:10065400D31AFA689A42F7D800BF00BF1037BD46D4
:1006640080BD00BF0800002080B485B000AF786072
:100674007B6803F00703FB600C4BDB68BB60BA6864
:100684004FF6FF031340BB60FB681A02BB681343B9
:1006940043F0BF6343F40033BB60044ABB68D360D8
:1006A40000BF1437BD465DF8047B704700ED00E0E1
:1006B40080B400AF044BDB681B0A03F00703184641
:1006C400BD465DF8047B704700ED00E080B483B064
:1006D40000AF03463960FB7197F90730002B0ADB42
:1006E4003B68DAB20C4997F907301201D2B20B44D5
:1006F40083F800230AE03B68DAB20849FB7903F087
:100704000F03043B1201D2B20B441A7600BF0C371C
:10071400BD465DF8047B704700E100E000ED00E0B9
:1007240080B489B000AFF860B9607A60FB6803F008
:100734000703FB61FB69C3F10703042B28BF0423F0
:10074400BB61FB690433062B02D9FB69033B00E060
:1007540000237B614FF0FF32BB6902FA03F3DA43F3
:10076400BB681A407B699A404FF0FF317B6901FAFC
:1007740003F3D9437B680B40134318462437BD4623
:100784005DF8047B7047000080B582B000AF7860EC
:100794007B68013BB3F1807F01D301230FE00A4A58
:1007A4007B68013B53600F214FF0FF30FFF78EFF52
:1007B400054B00229A60044B07221A600023184656
:1007C4000837BD4680BD00BF10E000E080B582B0B0
:1007D40000AF78607868FFF747FF00BF0837BD4671
:1007E40080BD80B586B000AF0346B9607A60FB7304
:1007F40000237B61FFF75CFF78617A68B9687869E8
:10080400FFF78EFF024697F90F3011461846FFF79F
:100814005DFF00BF1837BD4680BD80B582B000AF14
:1008240078607868FFF7B0FF034618460837BD467E
:1008340080BD000080B489B000AF786039600023C7
:100844007B6100233B610023BB610023FB6159E111
:100854000122FB6902FA03F37B613B681B687A6936
:1008640013403B613A697B699A4240F048813B6896
:100874005B6803F00303012B05D03B685B6803F05E
:100884000303022B30D17B689B68BB61FB695B006F
:10089400032202FA03F3DB43BA691340BB613B68EA
:1008A400DA68FB695B0002FA03F3BA691343BB61BC
:1008B4007B68BA699A607B685B68BB610122FB69EB
:1008C40002FA03F3DB43BA691340BB613B685B681C
:1008D4001B0903F00102FB6902FA03F3BA6913432B
:1008E400BB617B68BA695A603B685B6803F00303C9
:1008F400032B17D07B68DB68BB61FB695B000322B9
:1009040002FA03F3DB43BA691340BB613B689A689C
:10091400FB695B0002FA03F3BA691343BB617B68AA
:10092400BA69DA603B685B6803F00303022B23D1E6
:10093400FB69DA087B68083253F82230BB61FB6933
:1009440003F007039B000F2202FA03F3DB43BA69A7
:100954001340BB613B681A69FB6903F007039B0002
:1009640002FA03F3BA691343BB61FB69DA087B68D3
:100974000832B96943F822107B681B68BB61FB69C4
:100984005B00032202FA03F3DB43BA691340BB6141
:100994003B685B6803F00302FB695B0002FA03F344
:1009A400BA691343BB617B68BA691A603B685B68C8
:1009B40003F44033002B00F0A2800023FB60574B6C
:1009C4005B6C564A43F480435364544B5B6C03F4AE
:1009D4008043FB60FB68524AFB699B08023352F870
:1009E4002330BB61FB6903F003039B000F2202FA6F
:1009F40003F3DB43BA691340BB617B68494A934202
:100A040019D07B68484A934213D07B68474A934283
:100A14000DD07B68464A934207D07B68454A93428F
:100A240001D1042308E0072306E0032304E00223A2
:100A340002E0012300E00023FA6902F003029200BD
:100A44009340BA691343BB613549FB699B08023380
:100A5400BA6941F82320384B9B68BB613B69DB438F
:100A6400BA691340BB613B685B6803F48013002BD5
:100A740003D0BA693B691343BB612F4ABB699360D6
:100A84002D4BDB68BB613B69DB43BA691340BB6137
:100A94003B685B6803F40013002B03D0BA693B691D
:100AA4001343BB61244ABB69D360234B5B68BB61BE
:100AB4003B69DB43BA691340BB613B685B6803F481
:100AC4000033002B03D0BA693B691343BB611A4A54
:100AD400BB695360184B1B68BB613B69DB43BA6954
:100AE4001340BB613B685B6803F48033002B03D085
:100AF400BA693B691343BB610F4ABB691360FB6965
:100B04000133FB61FB690F2B7FF6A2AE00BF00BF70
:100B14002437BD465DF8047B704700BF00380240AF
:100B24000038014000000240000402400008024076
:100B3400000C024000100240003C014080B485B02B
:100B440000AF78600B467B807B681A697B88134012
:100B5400002B02D00123FB7301E00023FB73FB7B1A
:100B640018461437BD465DF8047B704780B483B0E3
:100B740000AF78600B467B8013467B707B78002B3C
:100B840003D07A887B689A6103E07B881A047B68C7
:100B94009A6100BF0C37BD465DF8047B70470000C6
:100BA40070B50D4D0D4C641BA4100026A64209D14E
:100BB4000B4D0C4C00F018F8641BA4100026A64240
:100BC40005D170BD55F8043B98470136EEE755F85A
:100BD400043B98470136F2E72C0C00082C0C000863
:100BE4002C0C0008300C0008F8B500BFF8BC08BC99
:100BF4009E467047F8B500BFF8BC08BC9E467047D7
:100C04003F000000060000005B0000004F000000F1
:100C1400660000006D0000007D0000000700000079
:080C24007F0000006F000000DA
:040C2C00B901000802
:040C30009501000822
:0C0C34000024F40010000000010000008B
:04000005080004EDFE
:00000001FF
