:020000040800F2
:100000000000012061030008DD020008E50200088D
:10001000ED020008F5020008FD02000800000000E3
:1000200000000000000000000000000005030008C0
:100030001303000800000000210300082F0300083C
:10004000B1030008B1030008B1030008B1030008C0
:10005000B1030008B1030008B1030008B1030008B0
:10006000B1030008B1030008B1030008B1030008A0
:10007000B1030008B1030008B1030008B103000890
:10008000B1030008B1030008B1030008000000003C
:10009000000000000000000000000000B1030008A4
:1000A000B1030008B1030008B1030008B103000860
:1000B000B1030008B1030008B1030008B103000850
:1000C000B1030008B1030008B1030008B103000840
:1000D000B1030008B1030008B103000800000000EC
:1000E000B1030008B1030008B103000800000000DC
:1000F000000000000000000000000000B103000844
:1001000000000000B1030008B1030008B1030008BB
:1001100000000000000000000000000000000000DF
:10012000B1030008B1030008B1030008B1030008DF
:10013000B103000800000000000000000000000003
:10014000000000000000000000000000B1030008F3
:10015000B1030008B1030008B1030008B1030008AF
:10016000B1030008B1030008000000000000000017
:10017000000000000000000000000000000000007F
:1001800000000000B10300080000000000000000B3
:04019000B1030008AF
:1001940010B5054C237833B9044B13B10448AFF3BD
:1001A40000800123237010BD0C000020000000001B
:1001B400300A000808B5034B1BB103490348AFF3E9
:1001C400008008BD0000000010000020300A000874
:1001D40080B588B000AF00F0EBF80023BB60274B7C
:1001E4001B6B264A43F001031363244B1B6B03F080
:1001F4000103BB60BB6800237B60204B1B6B1F4A61
:1002040043F0020313631D4B1B6B03F002037B607B
:100214007B684FF49063FB6001233B6100237B61A7
:100224000023BB6107F10C031946154800F03CFAA2
:1002340007F10C031946134800F036FA0122802115
:100244000F4800F0B5FB00224FF480610D4800F028
:10025400AFFB4FF47A7000F01DF9002280210848AA
:1002640000F0A6FB01224FF48061064800F0A0FBD9
:100274004FF47A7000F00EF900BFDFE70038024057
:10028400000002400004024080B483B000AF0023A9
:100294007B60104B5B6C0F4A43F4804353640D4BFB
:1002A4005B6C03F480437B607B6800233B60094BF9
:1002B4001B6C084A43F080531364064B1B6C03F019
:1002C40080533B603B6800BF0C37BD465DF8047B40
:1002D400704700BF0038024080B400AF00BFFDE7A4
:1002E40080B400AF00BFFDE780B400AF00BFFDE7FE
:1002F40080B400AF00BFFDE780B400AF00BFFDE7EE
:1003040080B400AF00BFBD465DF8047B704780B485
:1003140000AF00BFBD465DF8047B704780B400AFFA
:1003240000BFBD465DF8047B704780B500AF00F0A8
:1003340091F800BF80BD000080B400AF064BD3F835
:100344008830054A43F47003C2F8883000BFBD46C4
:100354005DF8047B704700BF00ED00E0DFF834D0A7
:10036400FFF7EAFF0C480D490D4A002302E0D45878
:10037400C4500433C4188C42F9D30A4A0A4C0023EB
:1003840001E013600432A242FBD300F02BFBFFF721
:100394001FFF704700000120000000200C00002017
:1003A400500A00080C0000202C000020FEE700008A
:1003B40080B500AF0E4B1B680D4A43F40073136005
:1003C4000B4B1B680A4A43F480631360084B1B6899
:1003D400074A43F480731360032000F031F90F20BF
:1003E40000F008F8FFF750FF0023184680BD00BF57
:1003F400003C024080B582B000AF7860124B1A68AE
:10040400124B1B7819464FF47A73B3FBF1F3B2FB2A
:10041400F3F3184600F03BF90346002B01D0012307
:100424000EE07B680F2B0AD8002279684FF0FF306A
:1004340000F011F9064A7B681360002300E00123F1
:1004440018460837BD4680BD000000200800002083
:100454000400002080B400AF064B1B781A46064BFC
:100464001B681344044A136000BFBD465DF8047B57
:10047400704700BF080000202800002080B400AFAF
:10048400034B1B681846BD465DF8047B704700BFEC
:100494002800002080B584B000AF7860FFF7EEFF3D
:1004A400B8607B68FB60FB68B3F1FF3F05D00A4B83
:1004B4001B781A46FB681344FB6000BFFFF7DEFF9E
:1004C4000246BB68D31AFA689A42F7D800BF00BF45
:1004D4001037BD4680BD00BF0800002080B485B041
:1004E40000AF78607B6803F00703FB600C4BDB68AC
:1004F400BB60BA684FF6FF031340BB60FB681A0287
:10050400BB68134343F0BF6343F40033BB60044A46
:10051400BB68D36000BF1437BD465DF8047B7047E9
:1005240000ED00E080B400AF044BDB681B0A03F06D
:1005340007031846BD465DF8047B704700ED00E0F4
:1005440080B483B000AF03463960FB7197F907307C
:10055400002B0ADB3B68DAB20C4997F90730120129
:10056400D2B20B4483F800230AE03B68DAB20849AC
:10057400FB7903F00F03043B1201D2B20B441A7649
:1005840000BF0C37BD465DF8047B704700E100E016
:1005940000ED00E080B489B000AFF860B9607A6023
:1005A400FB6803F00703FB61FB69C3F10703042B3A
:1005B40028BF0423BB61FB690433062B02D9FB6902
:1005C400033B00E000237B614FF0FF32BB6902FA7A
:1005D40003F3DA43BB681A407B699A404FF0FF315A
:1005E4007B6901FA03F3D9437B680B401343184634
:1005F4002437BD465DF8047B7047000080B582B0A7
:1006040000AF78607B68013BB3F1807F01D30123A5
:100614000FE00A4A7B68013B53600F214FF0FF3023
:10062400FFF78EFF054B00229A60044B07221A60E5
:10063400002318460837BD4680BD00BF10E000E027
:1006440080B582B000AF78607868FFF747FF00BFDD
:100654000837BD4680BD80B586B000AF0346B9609B
:100664007A60FB7300237B61FFF75CFF78617A6833
:10067400B9687869FFF78EFF024697F90F30114683
:100684001846FFF75DFF00BF1837BD4680BD80B533
:1006940082B000AF78607868FFF7B0FF0346184671
:1006A4000837BD4680BD000080B489B000AF7860D3
:1006B400396000237B6100233B610023BB6100237D
:1006C400FB6159E10122FB6902FA03F37B613B6898
:1006D4001B687A6913403B613A697B699A4240F02E
:1006E40048813B685B6803F00303012B05D03B683A
:1006F4005B6803F00303022B30D17B689B68BB610A
:10070400FB695B00032202FA03F3DB43BA6913407B
:10071400BB613B68DA68FB695B0002FA03F3BA6900
:100724001343BB617B68BA699A607B685B68BB6191
:100734000122FB6902FA03F3DB43BA691340BB618C
:100744003B685B681B0903F00102FB6902FA03F3CF
:10075400BA691343BB617B68BA695A603B685B68DA
:1007640003F00303032B17D07B68DB68BB61FB69D1
:100774005B00032202FA03F3DB43BA691340BB6153
:100784003B689A68FB695B0002FA03F3BA69134396
:10079400BB617B68BA69DA603B685B6803F003039A
:1007A400022B23D1FB69DA087B68083253F8223024
:1007B400BB61FB6903F007039B000F2202FA03F3FA
:1007C400DB43BA691340BB613B681A69FB6903F0F8
:1007D40007039B0002FA03F3BA691343BB61FB6985
:1007E400DA087B680832B96943F822107B681B6811
:1007F400BB61FB695B00032202FA03F3DB43BA69C2
:100804001340BB613B685B6803F00302FB695B0058
:1008140002FA03F3BA691343BB617B68BA691A60CD
:100824003B685B6803F44033002B00F0A280002394
:10083400FB60574B5B6C564A43F480435364544B00
:100844005B6C03F48043FB60FB68524AFB699B08C2
:10085400023352F82330BB61FB6903F003039B00AE
:100864000F2202FA03F3DB43BA691340BB617B68CE
:10087400494A934219D07B68484A934213D07B6813
:10088400474A93420DD07B68464A934207D07B681F
:10089400454A934201D1042308E0072306E00323D9
:1008A40004E0022302E0012300E00023FA6902F0DD
:1008B400030292009340BA691343BB613549FB6953
:1008C4009B080233BA6941F82320384B9B68BB610B
:1008D4003B69DB43BA691340BB613B685B6803F463
:1008E4008013002B03D0BA693B691343BB612F4AC1
:1008F400BB6993602D4BDB68BB613B69DB43BA6921
:100904001340BB613B685B6803F40013002B03D006
:10091400BA693B691343BB61244ABB69D360234B67
:100924005B68BB613B69DB43BA691340BB613B68ED
:100934005B6803F40033002B03D0BA693B691343AB
:10094400BB611A4ABB695360184B1B68BB613B69A6
:10095400DB43BA691340BB613B685B6803F48033D3
:10096400002B03D0BA693B691343BB610F4ABB69CF
:100974001360FB690133FB61FB690F2B7FF6A2AEA9
:1009840000BF00BF2437BD465DF8047B704700BF3D
:1009940000380240003801400000024000040240D8
:1009A40000080240000C024000100240003C0140DC
:1009B40080B483B000AF78600B467B8013467B70B5
:1009C4007B78002B03D07A887B689A6103E07B886C
:1009D4001A047B689A6100BF0C37BD465DF8047B3E
:1009E4007047000070B50D4D0D4C641BA41000261B
:1009F400A64209D10B4D0C4C00F018F8641BA4104E
:100A04000026A64205D170BD55F8043B984701362F
:100A1400EEE755F8043B98470136F2E7480A000828
:100A2400480A0008480A00084C0A0008F8B500BF44
:100A3400F8BC08BC9E467047F8B500BFF8BC08BCBB
:040A44009E46704713
:040A4800B9010008E8
:040A4C009501000808
:0C0A50000024F400100000000100000071
:04000005080003618B
:00000001FF
